:020000040800F2
:10000000F0080020C10A0008B5020008B702000885
:10001000BB020008BF020008C30200080000000085
:10002000000000000000000000000000C7020008FF
:10003000C902000800000000CB020008CD02000841
:10004000DB0A0008DB0A0008DB0A0008DB0A0008FC
:10005000DB0A0008DB0A0008DB0A0008DB0A0008EC
:10006000DB0A0008DB0A0008DB0A0008DB0A0008DC
:10007000DB0A0008DB0A0008DB0A0008DB0A0008CC
:10008000DB0A0008DB0A0008DB0A0008DB0A0008BC
:10009000DB0A0008DB0A0008DB0A0008DB0A0008AC
:1000A000DB0A0008DB0A0008DB0A0008DB0A00089C
:1000B000DB0A0008DB0A0008C12E0008DB0A000882
:1000C000DB0A0008DB0A0008DB0A0008DB0A00087C
:1000D000DB0A000893270008DB0A0008DB0A000897
:1000E000DB0A0008DB0A0008DB0A0008DB0A00085C
:1000F000DB0A0008DB0A0008DB0A0008DB0A00084C
:10010000DB0A0008DB0A0008DB0A0008DB0A00083B
:10011000DB0A0008DB0A0008DB0A0008DB0A00082B
:10012000DB0A0008DB0A0008DB0A0008DB0A00081B
:10013000DB0A0008DB0A0008DB0A0008DB0A00080B
:10014000DB0A0008DB0A0008DB0A0008DB0A0008FB
:10015000DB0A0008DB0A0008DB0A0008DB0A0008EB
:10016000DB0A0008DB0A0008DB0A0008DB0A0008DB
:10017000DB0A0008DB0A0008DB0A0008DB0A0008CB
:10018000DB0A0008DB0A000800F002F800F06DF856
:100190000AA090E8000C82448344AAF10107DA45E2
:1001A00001D100F062F8AFF2090EBAE80F0013F0C7
:1001B000010F18BFFB1A43F0010318474840000025
:1001C000684000000A444FF0000C10F8013B13F0A7
:1001D000070408BF10F8014B1D1108BF10F8015BA0
:1001E000641E05D010F8016B641E01F8016BF9D193
:1001F00013F0080F1EBF10F8014BAD1C0C1B09D1EA
:100200006D1E58BF01F801CBFAD505E014F8016B5B
:1002100001F8016B6D1EF9D59142D6D370470000ED
:100220000023002400250026103A28BF78C1FBD8FF
:10023000520728BF30C148BF0B607047642903F0E4
:10024000E583752903F0E283782903F01B84632991
:1002500003F06F85732903F07485002070471FB584
:1002600003F01AFF1FBD10B510BD03F09DFD114630
:10027000FFF7F5FF00F008F803F0BBFD03B4FFF74C
:10028000F2FF03BC02F022FA4FF4A06000F038FC49
:10029000A82002F099F94FF4E13002F024FA044862
:1002A00041685420884700F0CDFA00BFFEE7000007
:1002B000D4000020704700BFFEE700BFFEE700BF8C
:1002C000FEE700BFFEE770477047704770470000C9
:1002D0000CB50020019000907648006840F4803012
:1002E0007449086000BF7348006800F40030009053
:1002F0000198401C0190009818B90198B0F5A04FE2
:10030000F1D16C48006800F4003010B10120009079
:1003100001E0002000900098012846D16548403057
:10032000006840F0805063494031086062480068CE
:1003300040F44040604908605E48083000685D490C
:10034000083108600846006840F40040086008462C
:10035000006840F4A05008605848091F0860081F52
:10036000006840F08070091F086000BF51480068B5
:1003700000F000700028F9D040F205705049086084
:100380004C480830006820F003004A4908310860F2
:100390000846006840F00200086000BF4548083089
:1003A000006800F00C000828F8D10CBD10B54548D5
:1003B000006840F47000434908603E48006840F01F
:1003C00001003C49086000203A490831086039487A
:1003D00000683D490840374908603C48091D0860ED
:1003E000081F006820F48020091F086000203149A0
:1003F0000C310860FFF76CFF4FF000603149803925
:10040000086010BD70B500200022022300240221E4
:10041000284D08352D6805F00C0020B1042806D0C1
:10042000082834D107E02A4D2A4E356033E02A4DA2
:10043000284E35602FE01F4D2D1D2D68C5F38054CB
:100440001C4D2D1D2D6805F03F0154B1224DB5FB0B
:10045000F1F5184E361D3668C6F3881605FB06F210
:1004600009E01B4DB5FBF1F5124E361D3668C6F39B
:10047000881605FB06F20F4D2D1D2D68C5F30145AD
:100480006D1C6B00B2FBF3F5124E356003E0104DAE
:10049000104E356000BF00BF064D08352D68C5F30E
:1004A00003150E4E705D0B4D2D68C540094E35602D
:1004B00070BD000000380240007000400854400742
:1004C000003C024088ED00E0FFFFF6FE1030002403
:1004D0000024F4000000002000127A000400002034
:1004E00000EB4001880000BF011EA0F10100FBD11C
:1004F000704700B50020FE4908600420FFF7F0FFB8
:100500000120FC49C1F888020420FFF7E9FF002020
:10051000F749086000BD2DE9F04705460E4617462D
:1005200098464FF00009CA4600240023A94600203F
:10053000EF4908390860EF49C1F8840200BF1DE0A7
:100540000020EB490839086009F08000802804D1B8
:100550000120E749091D086003E00020E449091D66
:1005600008600120E249083908604FEA49604FEA13
:1005700010690220FFF7B4FF581CC3B2082BDFDB61
:100580000020DB4908390860002429E017F804A09E
:1005900000231DE00020D649083908600AF08000D9
:1005A000802804D10120D249091D086003E0002001
:1005B000CF49091D08600120CD49083908604FEA7C
:1005C0004A604FEA106A0220FFF78AFF581CC3B244
:1005D000082BDFDB0020C64908390860601CC4B264
:1005E000B442D3DBB8F1010F01D1FFF782FF012044
:1005F000BF49091F0860BDE8F08778B504460E467C
:100600000020009046F48055E8B28DF802002812D0
:100610008DF8010064B90023B74A01211846FFF79D
:100620007AFF01236A4603210620FFF774FF2BE0BF
:10063000012C0CD10023B14A01211846FFF76BFFB2
:1006400001236A4603210620FFF765FF1CE0022C08
:100650000CD10023AA4A01211846FFF75CFF0123B1
:100660006A4603210620FFF756FF0DE0032C0BD14D
:100670000023A44A01211846FFF74DFF01236A46D3
:1006800003210620FFF747FF78BD70B504460D46ED
:1006900000262E469C494E703012087064B9002323
:1006A000954A01211846FFF736FF0123964A022199
:1006B0000520FFF730FF2BE0012C0CD100238F4ADF
:1006C00001211846FFF727FF01238F4A0221052049
:1006D000FFF721FF1CE0022C0CD10023884A0121E6
:1006E0001846FFF718FF0123874A02210520FFF76C
:1006F00012FF0DE0032C0BD10023824A0121184682
:10070000FFF709FF0123804A02210520FFF703FFBD
:1007100070BD70B52DED048B82B004460E460020EE
:100720000190304603F0A7FB41EC190B9FED770BCE
:1007300053EC102B03F0B2FB41EC180B03F06EFBF3
:100740000546E8B28DF80700280A8DF80600280C47
:100750008DF80500280E8DF8040064B90023664A60
:1007600001211846FFF7D7FE012301AA04210846FC
:10077000FFF7D1FE2BE0012C0CD100235F4A0121B1
:100780001846FFF7C8FE012301AA04210846FFF717
:10079000C2FE1CE0022C0CD10023594A012118464C
:1007A000FFF7B9FE012301AA04210846FFF7B3FEB3
:1007B0000DE0032C0BD10023524A01211846FFF70C
:1007C000AAFE012301AA04210846FFF7A4FE02B0F5
:1007D000BDEC048B70BD00B5002045493031086088
:1007E0000120FFF77DFE01204249C1F8B8021E201A
:1007F000FFF776FE00203E493031086000BD002042
:100800003B492431086001203A49C1F884020020A4
:1008100037490839086036490860354908310860A9
:10082000091D0860091D0860091D08603049091D7F
:1008300008602F4918310860091D08602D49C1F86A
:10084000A80270470EB533A000680290012108206D
:1008500000F0EAFC44F6FF70009001208DF80400DF
:1008600000208DF8060003208DF8050001208DF88A
:1008700007006946284800F039FAFFF7C0FFFFF784
:10088000AAFF012302AA03211846FFF744FE2348CA
:1008900001680020FFF73DFF204841680120FFF775
:1008A00038FF1E4881680220FFF733FF1B48C168EC
:1008B0000320FFF72EFF1A48808981B20320FFF73B
:1008C000E4FE1748008881B20020FFF7DEFE1448DE
:1008D000808881B20120FFF7D8FE1148008981B2DB
:1008E0000220FFF7D2FE0F48808981B203201BE06F
:1008F00088824142008041421400002015000020FF
:1009000016000020170000201D00002095D626E8C4
:100910000B2E2140D3000000000C02402C000020D0
:100920004C0000203C000020FFF767FE6048008874
:1009300081B20020FFF761FE5D48808881B201200E
:10094000FFF75BFE5A48008981B20220FFF755FE8F
:100950000EBD2DE9FC470746884691464FF0000A38
:10096000002500260024BA460120524908602020B4
:10097000FFF7B6FD01205049C1F884022020FFF79F
:10098000AFFD00204B49091D08602020FFF7A8FD9E
:100990000120009002208DF8050001208DF8040050
:1009A00000208DF806006946444800F09FF9202099
:1009B000FFF796FD00BF1EE000203E4908600AF0E8
:1009C0008000802804D101203A490C31086003E0FE
:1009D000002038490C3108602020FFF781FD0120FC
:1009E000344908602020FFF77BFD4FEA4A604FEA58
:1009F000106A601CC4B2082CDEDB082000900220C4
:100A00008DF8050000208DF804008DF80700694678
:100A10002A4800F06BF92020FFF762FD454620E0F0
:100A2000002416E00020234908607006060E082105
:100A3000224800F0BDF908B146F001062020FFF77A
:100A40004FFD01201B4908602020FFF749FD601C75
:100A5000C4B2082CE6DB09EB050000F8016C681E47
:100A6000C5B2002DDCDC2020FFF73AFD0120114942
:100A7000091D0860BDE8FC8770B504460D4629468F
:100A80002046FFF746FE70BD30B504460D462946A8
:100A90002046FFF7B2FD30BD30B504460D4629466D
:100AA0002046FFF7F2FD30BD10B5FFF7CBFE10BDBD
:100AB0003C0000208082414200804142000C024004
:100AC0000948804709480047FEE7FEE7FEE7FEE7E2
:100AD000FEE7FEE7FEE7FEE7FEE7FEE7044805491E
:100AE000054A064B70470000AD0300088901000865
:100AF000F0020020F0080020F0040020F0040020A4
:100B000032490143324A1160704770B50021002319
:100B10000F22C4781CB32E4C246804F4E064C4F59E
:100B2000E064C4F30721C1F10404E3B20A4144784C
:100B30009C40E1B28478144021430C07210E254CDF
:100B400005786155047804F01F050124AC40057850
:100B50006D11AD0005F1E025C5F8004109E004780C
:100B600004F01F050124AC401B4D0678761145F8B2
:100B7000264070BD194A0A400243154B1B1F1A60DC
:100B8000704739B1124A121D12680243104B1B1DE7
:100B90001A6006E00E4A121D126882430C4B1B1DA0
:100BA0001A607047042808D14FF0E021096941F02C
:100BB00004014FF0E022116107E04FF0E0210969E4
:100BC00021F004014FF0E022116170470000FA05A6
:100BD0000CED00E000E400E080E100E080FFFF1F9A
:100BE00010B504469848844208D10121084600F017
:100BF00086FB0021012000F082FB76E093488442CE
:100C000008D10121022000F07AFB0021022000F02F
:100C100076FB6AE08E48844208D10121042000F06E
:100C20006EFB0021042000F06AFB5EE089488442EC
:100C300008D10121082000F062FB0021082000F00B
:100C40005EFB52E08448844208D10121102000F06C
:100C500056FB0021102000F052FB46E07F48844202
:100C600008D10121202000F04AFB0021202000F0C3
:100C700046FB3AE07A48844208D10121402000F046
:100C80003EFB0021402000F03AFB2EE075488442F4
:100C900008D10121802000F032FB0021802000F0EB
:100CA0002EFB22E07048844208D10121801500F01B
:100CB00026FB0021A01500F022FB16E06B488442C1
:100CC00008D10121401500F01AFB0021601500F049
:100CD00016FB0AE06648844207D10121001500F0A6
:100CE0000EFB0021201500F00AFB10BDF0B50A46EE
:100CF00000210023002400BF3DE0012505FA01F397
:100D0000156805EA03049C4234D105684F000326A8
:100D1000BE40B543056015794E00B54006683543C1
:100D200005601579012D02D01579022D16D185683F
:100D30004F000326BE40B543856055794E00B5404F
:100D4000866835438560456801268E40B543456019
:100D5000456896798E40B6B235434560C5684F0008
:100D60000326BE40B543C560D5794E00B540C66880
:100D70003543C560491C1029BFD3F0BD4FF6FF7144
:100D800001600021017141718171C171704708B525
:100D90004FF480320092009A0A430092009AC26196
:100DA000C161009AC261C2690092C269009208BD25
:100DB0000246002013690B400BB1012000E0002027
:100DC00070470146086980B27047024600205369A7
:100DD0000B400BB1012000E000207047014648693C
:100DE00080B2704701837047418370470AB1018325
:100DF00000E0418370474161704742694A40426167
:100E00007047F0B5002300244D07ED0E02FA05F3FC
:100E1000CE1000F1200555F826504E07F70E0F268C
:100E2000BE40B543CF1000F1200646F82750CE1043
:100E300000F1200555F8265045EA0304CE1000F1D4
:100E4000200545F82640F0BD0000024000040240A5
:100E500000080240000C0240001002400014024052
:100E600000180240001C0240002002400024024002
:100E700000280240F948006840F00100F749086086
:100E80000020F64908310860F4480068F449084039
:100E9000F2490860F348091D0860F348EF498431BE
:100EA0000860F0481038091D0860EC48006820F41C
:100EB0008020EA4908600020E8490C310860E749D1
:100EC0008C31086070470021E44A921C1170114671
:100ED0000870704710B501460022002300204A1117
:100EE000012A02D1DD4C236808E0022A03D1DB4C41
:100EF0007034236802E0D94C7434236801F01F0277
:100F0000012494401C400CB1012000E0002010BDE1
:100F100038B5002000900024002500BF3120FFF7E5
:100F2000D9FF05460098401C00900098B0F5A04FEE
:100F300001D0002DF2D03120FFF7CCFF08B1012401
:100F400000E00024204638BD01460020C34A106856
:100F500020F0F80040EAC10010607047C349086003
:100F600070470021BD4A703211701170012802D003
:100F700004280AD104E00121B84A7032117005E05A
:100F80000521B64A7032117000E000BF00BF704703
:100F9000B7490860704770B5049C41EA8215012684
:100FA000C6EB530645EA0645054345EA0465AB4EE4
:100FB000361D356070BDAD4908667047820142EA52
:100FC0000172A64B84331A607047A849886670473F
:100FD00010B5830143EA016343EA02739F4C8834EE
:100FE000236010BDA14908677047A049C8647047D5
:100FF00002460020994B0833186820F0EC6042EA62
:1010000001031843954B08331860704702460020CF
:10101000924B0833186820F0784042EA01031843E5
:101020008E4B083318607047014600208B4A083207
:10103000106820F0030008431060704787480830AC
:10104000006800F00C00704701460020834A083217
:10105000106820F0F000084310607047014600203F
:101060007E4A0832106820F4E05008431060704750
:1010700001460020794A0832106820F4604040EAB6
:10108000C10010607047F0B5002100220024022545
:1010900000260223714F08373F6807F00C0121B189
:1010A000042905D0082937D105E0724F076036E0E2
:1010B000714F076033E0694F3F1D3F68C7F38056AB
:1010C000664F3F1D3F6807F03F036EB16A4FB7FBA5
:1010D000F3F7DFF888C10CF1040CDCF800C0CCF3A6
:1010E000881C07FB0CF40CE0624FB7FBF3F7DFF84A
:1010F0006CC10CF1040CDCF800C0CCF3881C07FBBD
:101100000CF4564F3F1D3F68C7F301477F1C7D001D
:10111000B4FBF5F7076002E0564F076000BF00BF61
:101120004E4F08373F6807F0F0010909534F7A5CCA
:101130000768D7404760494F08373F6807F4E051D8
:10114000890A4E4F7A5C4768D7408760434F08371B
:101150003F6807F46041490B484F7A5C4768D740C5
:10116000C760F0BD002100F44072B2F5407F0AD1A3
:101170003A4A0832116821F4F811414A02401143F9
:10118000364A08321160354A70321268C0F30B03D8
:101190001A43324B70331A6070473549443908603E
:1011A00070473349403908607047364908607047D6
:1011B00001460020294A8C32106820F01F004A1E88
:1011C0001043264A8C321060704701460020234AA3
:1011D0008C32106820F4F8504A1E40EA02201F4A60
:1011E0008C3210607047014600201C4A8C32106817
:1011F00020F4401008431060704701460020174A51
:101200008C32106820F4400008431060704701469B
:101210000020124A8C32106820F4403008431060DD
:10122000704719490860704739B10C4A303212686A
:1012300002430A4B30331A6006E0084A3032126823
:101240008243064B30331A607047F9B1034A343297
:1012500012680243014B34331A601CE0003802402C
:10126000FFFFF6EA10300024003000200000474263
:10127000800E47420024F40000127A005C00002037
:10128000FFFCFF0F5C014742E01147428F4A1268A2
:1012900082438E4B1A60704739B18C4A121D126816
:1012A00002438A4B1B1D1A6006E0884A121D126811
:1012B0008243864B1B1D1A60704739B1834A0C323A
:1012C00012680243814B0C331A6006E07F4A0C32ED
:1012D000126882437D4B0C331A60704739B17B4AE8
:1012E000103212680243794B10331A6006E0774AD5
:1012F000103212688243754B10331A60704739B14F
:10130000724A243A12680243704B243B1A6006E08A
:101310006E4A243A126882436C4B243B1A60704731
:1013200039B16A4A203A12680243684B203B1A607E
:1013300006E0664A203A12688243644B203B1A60FA
:10134000704739B1614A1C3A126802435F4B1C3B3B
:101350001A6006E05D4A1C3A126882435B4B1C3BF4
:101360001A60704739B1594A143A12680243574B10
:10137000143B1A6006E0554A143A12688243534BF4
:10138000143B1A60704739B1504A103A1268024350
:101390004E4B103B1A6006E04C4A103A12688243EA
:1013A0004A4B103B1A60704739B1484A1C321268E8
:1013B0000243464B1C331A6006E0444A1C32126852
:1013C0008243424B1C331A60704739B13F4A203286
:1013D000126802433D4B20331A6006E03B4A20323C
:1013E00012688243394B20331A60704739B1374A4B
:1013F000243212680243354B24331A6006E0334A24
:10140000243212688243314B24331A60704739B159
:101410002E4A2C32126802432C4B2C331A6006E001
:101420002A4A2C3212688243284B2C331A607047A8
:1014300039B1264A303212680243244B30331A60E5
:1014400006E0224A303212688243204B30331A6061
:101450007047012808D11D493C31096841F0080155
:101460001A4A3C32116007E018493C31096821F002
:101470000801164A3C321160704739B1134A273AC5
:1014800012780243114B273B1A7006E00F4A273AA5
:10149000127882430D4B273B1A7070470B4840303F
:1014A000006840F08070094940310860704701468B
:1014B0000020064A283A12680A400AB1012000E0DA
:1014C00000207047014926390870704734380240BF
:1014D00010B50446FE48844208D101210846FFF7B2
:1014E00052FF00210120FFF74EFF9DE0B4F1804F35
:1014F00008D101210846FFF735FF00210120FFF741
:1015000031FF91E0F348844208D101210220FFF726
:1015100029FF00210220FFF725FF85E0EE488442E5
:1015200008D101210420FFF71DFF00210420FFF74F
:1015300019FF79E0E948844208D101210820FFF72A
:1015400011FF00210820FFF70DFF6DE0E448844201
:1015500008D101211020FFF705FF00211020FFF71F
:1015600001FF61E0DF48844208D101212020FFF71C
:10157000F9FE00212020FFF7F5FE55E0DA4884420D
:1015800008D101210220FFF7FEFE00210220FFF713
:10159000FAFE49E0D548844209D101210804FFF749
:1015A000F2FE00214FF48030FFF7EDFE3CE0D04822
:1015B000844209D101214804FFF7E5FE00214FF4E0
:1015C0000030FFF7E0FE2FE0CA48844209D1012134
:1015D0008804FFF7D8FE00214FF48020FFF7D3FEE8
:1015E00022E0C548844208D101214020FFF7BAFE1D
:1015F00000214020FFF7B6FE16E0C048844208D123
:1016000001218020FFF7AEFE00218020FFF7AAFE17
:101610000AE0BB48844207D101218015FFF7A2FEF2
:101620000021A015FFF79EFE10BD00220288A84BE6
:1016300098420ED0AC4B98420BD0B0F1804F08D0FE
:10164000A44B984205D0A44B984202D0A34B984299
:1016500004D14FF68F731A404B881A43A04B98421F
:1016600007D0A04B984204D04FF6FF431A400B8995
:101670001A4302804B68C3620B880385944B9842DF
:1016800002D0994B984201D18B7A03860123838241
:1016900070474FF0FF31416000210180018141809E
:1016A000817270470185828270470A460021018855
:1016B0004FF68F73194011430180704741627047A4
:1016C000C16270470146486A70470146088D7047FD
:1016D00021B1028842F00202028004E002884FF643
:1016E000FD731A400280704721B1028842F0040263
:1016F000028004E002884FF6FB731A4002807047B4
:1017000021B1028842F08002028004E002884FF694
:101710007F731A400280704702884FF6F7731A40B1
:10172000028002880A430280704702884FF6FF4316
:101730001A40028002880A430280704721B1028861
:1017400042F00102028004E002884FF6FE731A4064
:101750000280704770B5002400220023058C4FF6EC
:10176000FE7635400584028C8388048B4FF68F7596
:101770002C40B51E2C400D882C43751E2A408D89A7
:101780002A434D882A43524DA84202D0564DA842C2
:1017900013D14FF6F7752A40CD892A434FF6FB75D2
:1017A0002A408D882A434FF6FF652B404FF6FF55A0
:1017B0002B400D8A2B434D8A2B43838004838D68F5
:1017C0004563028470BD70B5002400220023058C9F
:1017D0004FF6EF7635400584028C8388048B48F6FB
:1017E000FF752C404FF6FF452C400D884FF6FF76D5
:1017F00006EA05252C434FF6DF752A408D8906EA57
:1018000005152A434D8806EA05152A43304DA8429E
:1018100002D0354DA8421DD14FF67F752A40CD89A3
:101820004FF6FF7606EA05152A434FF6BF752A40A4
:101830008D8806EA05152A434FF6FF352B404FF2F7
:10184000FF752B400D8A06EA85052B434D8A06EA73
:1018500085052B43838004838D688563028470BD76
:1018600070B5002400220023058C4FF6FF6635403A
:101870000584028C8388848B4FF68F752C404FF63D
:10188000FC752C400D882C434FF6FF552A408D895E
:101890004FF6FF7606EA05252A434D8806EA052518
:1018A0002A430B4DA84202D00F4DA84238D14FF227
:1018B000FF752A40CD894FF6FF7606EA05252A43B3
:1018C0004FF6FF352A408D8806EA05252A4319E0A0
:1018D000000001400004004000080040000C0040EF
:1018E000001000400014004000040140004001408E
:1018F000004401400048014000180040001C004026
:10190000002000404EF6FF752B404DF6FF752B4032
:101910000D8A06EA05152B434D8A06EA05152B4369
:10192000838084838D68C563028470BD70B5002296
:1019300000230024058C4EF6FF7635400584038C89
:101940008488828B48F6FF752A404FF6FF452A406F
:101950000D884FF6FF7606EA05252A434DF6FF75FA
:101960002B408D8906EA05352B434D8806EA05355F
:101970002B43FE4DA84202D0FD4DA84208D14BF6A4
:10198000FF752C400D8A4FF6FF7606EA85152C432D
:10199000848082838D680564038470BD002101808A
:1019A0004180818081608181C18101824182704753
:1019B00070B50346002000241846183001258D40DC
:1019C000ACB21D8CA5431D8409B108290AD100EBD6
:1019D000610005684FF68F76354005600568154350
:1019E00005600FE00D1FC5F34E052844056848F655
:1019F000FF763540056005684FF6FF7606EA022659
:101A00003543056070BD4163704781637047C163B2
:101A10007047016470470A460021018B4FF68F73AF
:101A200019401143018370470A460021018B48F693
:101A3000FF7319404FF6FF7303EA02231943018332
:101A400070470A460021818B4FF68F73194011436E
:101A5000818370470A460021818B48F6FF73194045
:101A60004FF6FF7303EA02231943818370470A4646
:101A70000021018B4FF6F773194011430183704722
:101A80000A460021018B4FF2FF7319404FF6FF7396
:101A900003EA02231943018370470A460021818B20
:101AA0004FF6F77319401143818370470A460021AE
:101AB000818B4FF2FF7319404FF6FF7303EA022345
:101AC0001943818370470A460021018B4FF6FB734F
:101AD00019401143018370470A460021018B4FF6DC
:101AE000FF3319404FF6FF7303EA022319430183C2
:101AF00070470A460021818B4FF6FB731940114352
:101B0000818370470A460021818B4FF6FF331940CD
:101B10004FF6FF7303EA02231943818370470A4695
:101B20000021018B4FF67F731940114301837047E9
:101B30000A460021018BC1F30E014FF6FF7303EA41
:101B400002231943018370470A460021818B4FF617
:101B50007F7319401143818370470A460021818BAE
:101B6000C1F30E014FF6FF7303EA02231943818389
:101B700070470A460021018C4FF6FD73194011434E
:101B8000018470470A460021018C4FF6F773194013
:101B90001143018470470A460021018C4FF6DF7320
:101BA00019404FF6FF7303EA02131943018470478B
:101BB0000A460021018C4FF67F7319404FF6FF73E0
:101BC00003EA02131943018470470A460021018C7D
:101BD0004FF6FF5319404FF6FF7303EA02231943F0
:101BE000018470470A460021018C4FF2FF731940AF
:101BF0004FF6FF7303EA02231943018470470A4634
:101C00000021018C4DF6FF7319404FF6FF7303EA74
:101C1000023319430184704730B5002301248C40FE
:101C2000A3B2048C9C430484048C02FA01F5ADB287
:101C30002C43048430BD30B5002304248C40A3B26F
:101C4000048C9C430484048C02FA01F5ADB22C434D
:101C5000048430BD828B4FF2FF331A408283828B23
:101C60004FF6FF7303EA01231A4382837047F0B5EE
:101C70000C461546002100220026078C4EF6FF7CFC
:101C800007EA0C070784818B028C4FF6FF7707EA7F
:101C9000043640F6FF4739404FF6FF7707EA05273D
:101CA00039434FF6FF7707EA0337394345F6FF77A5
:101CB0003A4046F480573A4381830284F0BD828BD8
:101CC0004FF6F3731A408283828B0A4382837047F4
:101CD000F0B50C461546002100220026078C4FF671
:101CE000FF6C07EA0C070784818B028C4FF6FF77A5
:101CF00007EA04264FF60C7739404FF6FF7707EADC
:101D000003172F4339434FF2FF573A4046F4807789
:101D10003A4381830284F0BD028B4FF2FF331A40B5
:101D20000283028B4FF6FF7303EA01231A430283F7
:101D30007047F0B50C461546002100220026078C9E
:101D40004FF6EF7C07EA0C070784018B028C4FF6F5
:101D5000FF7707EA041640F6FF4739404FF6FF7752
:101D600007EA033739434FF6FF7703E000000140ED
:101D70000004014007EA052739434FF65F773A40F0
:101D800046F010073A4301830284F0BD028B4FF600
:101D9000F3731A400283028B0A4302837047F0B543
:101DA0000C46154600210022068C4FF6FE773E4079
:101DB0000684018B028C4FF60C7631407E1C06EABD
:101DC00003162E4331434FF6F576324044F00106B8
:101DD000324301830284F0BD70B505460C4620886D
:101DE00050B92389A28861882846FFF7D8FFE18887
:101DF0002846FFF7CBFF25E0208804280AD1238955
:101E0000A28861882846FFF794FFE1882846FFF7FB
:101E100083FF17E0208808280AD12389A2886188D7
:101E20002846FFF755FFE1882846FFF748FF09E0FD
:101E30002389A28861882846FFF719FFE188284690
:101E4000FFF708FF70BD00210180418001218180E2
:101E50000021C180018170472DE9F04105460C4603
:101E600000260127608808B9022600E00026A08825
:101E7000012801D1022700E001272088A0B9238989
:101E8000A28861882846FFF78AFFE1882846FFF785
:101E90007DFF23893A4631462846FFF74AFFE1880D
:101EA0002846FFF739FF13E02389A2886188284676
:101EB000FFF73FFFE1882846FFF72EFF23893A46C8
:101EC00031462846FFF76BFFE1882846FFF75EFFA3
:101ED000BDE8F0810146486B70470146886B70474A
:101EE0000146C86B70470146086C70470A884B88EA
:101EF0001A438B881A43CB881A430B891A434B89A0
:101F00001A438B891A43A0F84420704700210180AE
:101F100041808180C180018141818181704731B1DF
:101F2000B0F8442042F40042A0F8442005E0B0F8A4
:101F30004420C2F30E02A0F84420704721B18288E9
:101F400042F00402828004E082884FF6FB731A405C
:101F50008280704721B1828842F00102828004E0D1
:101F600082884FF6FE731A40828070471AB18389C7
:101F70000B43838102E083898B4383817047818295
:101F8000704702460020138A0B400BB1012000E08D
:101F900000207047CA430282704730B502460020D5
:101FA00000230024158A05EA0103958905EA010446
:101FB00013B10CB1012000E0002030BDCA43028201
:101FC000704741EA0203A0F8483070471AB183898C
:101FD0000B43838102E083898B438381704721B166
:101FE000828842F00802828004E082884FF6F7730C
:101FF0001A408280704701894FF6F87211400181C2
:1020000070470A46002101894FF68F73194011432A
:102010000181704730B504460D4629462046FFF73A
:10202000F0FF208940F00700208130BD2DE9F0410C
:1020300004460D4616461F46602D06D13B4601223A
:1020400031462046FFF775FE05E03B46012231464A
:102050002046FFF7A4FE29462046FFF7D2FF20893D
:1020600040F007002081BDE8F08130B50C4600212A
:102070000189C9B24FF6FF7505EA032515432543CB
:102080002943018130BD2DE9F04105460E46174632
:102090009846002443463A4631462846FFF7E5FF76
:1020A0002C894FF6F870044044F007044FF68F7007
:1020B000044044F070042C81BDE8F081F0B5044682
:1020C0000D4616461F463B46324629462046FFF738
:1020D000CCFF208940F480402081F0BD82884FF6FB
:1020E0008F731A40828082880A43828070470289F7
:1020F0004FF6F8731A40028102890A430281704741
:1021000002894FF67F731A40028102890A430281D5
:102110007047F0B50C4615461E46002100220023EC
:102120000189028B038C4FF6F877394021434FF633
:10213000FC473A4040F201173A434FF6DD773B4007
:102140004FF6FF7707EA06172F433B4301810283CF
:102150000384F0BD21B1828842F08002828004E0D5
:1021600082884FF67F731A4082807047A0F8501023
:102170007047000010B50446FA48844208D1012196
:102180001020FFF700F900211020FFF7FCF857E0BE
:10219000F548844209D101214804FFF7E3F8002102
:1021A0004FF40030FFF7DEF84AE0F048844209D1EE
:1021B00001218804FFF7D6F800214FF48020FFF7B3
:1021C000D1F83DE0EA48844209D10121C804FFF773
:1021D000C9F800214FF40020FFF7C4F830E0E548CB
:1021E000844209D101210805FFF7BCF800214FF412
:1021F0008010FFF7B7F823E0DF48844208D10121BF
:102200002020FFF7C0F800212020FFF7BCF817E0DE
:10221000DA48844209D101218807FFF7A3F8002199
:102220004FF08040FFF79EF80AE0D548844207D17E
:1022300001214005FFF796F800216005FFF792F8AD
:1022400010BD2DE9FF4705460E460024A14600BFFC
:10225000A046B08900B100BF2C8A24F44054F08815
:1022600004432C82AC8941F20C608443B0883189EC
:102270000843718908430443AC81AC8A24F4407458
:10228000B0890443AC826846FEF7FDFEB54885423E
:1022900002D0B948854202D1DDF80C9001E0DDF8AA
:1022A0000890A88900F4004040B109EBC90000EB98
:1022B000091031684900B0FBF1F707E009EBC900EC
:1022C00000EB091031688900B0FBF1F76420B7FB1F
:1022D000F0F004012009642101FB1078A88900F4C2
:1022E000004040B1322000EBC800B0FBF1F000F03C
:1022F0000700044308E0322000EB08106421B0FB23
:10230000F1F000F00F0004432C81BDE8FF874FF48B
:102310001651016000218180C18001810C21418121
:1023200000218181704710B502460020108A20F4F8
:1023300070600B884C8823438C882343CC882343CC
:102340001843108210BD0021018041808180C1802E
:10235000704721B1828942F40052828104E082896F
:102360004DF6FF731A4082817047028B02F47F4260
:102370000283028B0A430283704721B1828942F4AF
:102380000042828103E08289C2F30E02828170479B
:1023900021B1828A42F40062828204E0828A4FF292
:1023A000FF731A4082827047C1F30802828070472F
:1023B00001468888C0F308007047028A4FF6F07320
:1023C0001A400282028A0A430282704721B182893E
:1023D00042F00202828104E082894FF6FD731A40C6
:1023E0008281704782894FF2FF731A40828182890D
:1023F0000A4382817047028A4FF6DF731A400282D5
:10240000028A0A430282704721B1028A42F4804262
:10241000028204E0028A4BF6FF731A400282704780
:10242000818941F001018181704721B1828A42F0A6
:102430000802828204E0828A4FF6F7731A40828291
:102440007047028BD2B20283028B42EA01220283DE
:10245000704721B1828A42F02002828204E0828A9F
:102460004FF6DF731A408282704721B1828A42F0B0
:102470001002828204E0828A4FF6EF731A40828251
:102480007047828A4FF6FB731A408282828A0A431F
:102490008282704721B1828A42F00202828204E085
:1024A000828A4FF6FD731A40828270471AB1838A7E
:1024B0000B43838202E0838A8B4383827047F0B5AB
:1024C0000346002400260025002040F66A17B94282
:1024D00000D100BF1846C1F3421401F01F060127C6
:1024E00007FA06F5012C01D10C3004E0022C01D1D1
:1024F000103000E014301AB107682F43076002E083
:102500000768AF430760F0BD02460020B1F5007FC9
:1025100000D100BF13880B400BB1012000E0002068
:10252000704701F40072B2F5007F00D100BFCA43CA
:102530000280704770B50246002400230025002069
:1025400040F66A16B14200D100BFC1F3421501F056
:102550001F03012606FA03F3012D13D19689334098
:1025600017E0000000100140004400400048004017
:10257000004C004000500040001401400078004032
:10258000007C0040022D02D1168A334001E0968A79
:1025900033400C12012606FA04F41688344013B1B5
:1025A0000CB1012000E0002070BD10B50022002316
:1025B00040F66A14A14200D100BF0A1201249440DF
:1025C000A3B2DC43048010BD10B504466FF00400D4
:1025D000FEF7E8FAE11704EB5171C1F3C701394A7C
:1025E00011701046007800EB4001C1EBC0104FF6AF
:1025F000FF7101EAC0003449088010BD0146314A2C
:1026000012784A434FF0E0235A6100229A611A4639
:10261000126942F001021A6100BF4FF0E022106916
:1026200000F001021AB100F48032002AF5D04FF018
:10263000E022126922F001024FF0E0231A61002229
:102640009A6170470146204A12884A434FF0E023BE
:102650005A6100229A611A46126942F001021A6117
:1026600000BF4FF0E022106900F001021AB100F43F
:102670008032002AF5D04FF0E022126922F00102E8
:102680004FF0E0231A6100229A61704770B504464A
:102690004FF4077094FBF0F0C6B24FF4077094FB50
:1026A000F0F100FB114085B205E04FF40770FFF731
:1026B000C9FF701EC6B2002EF7D115B12846FFF72C
:1026C000C1FF70BD6C0000206E00002000BF70478D
:1026D00000BF4E4A128802F04002002AF9D0C2B26E
:1026E0004A4B9A80704710B588B0044601210846CD
:1026F000FEF79AFD01211020FEF7F0FD07220921C7
:102700004348FEF77EFB07220A214148FEF779FB8A
:102710004FF4C060069002208DF81C008DF81D005B
:1027200000208DF81E0001208DF81F0006A93848F2
:10273000FEF7DCFA02940020ADF80C00ADF80E00B4
:10274000ADF81000ADF814000C20ADF8120002A98D
:102750002E48FFF776FD01212C48FFF7FAFD4021B6
:102760002A48FFF7DEFE012240F225512748FFF7F5
:10277000A6FE25208DF8040003208DF805008DF8B5
:10278000060001208DF8070001A8FEF7BEF908B089
:1027900010BD10B540F225511C48FFF7CBFE10B319
:1027A0001A48FFF705FEC4B21A48008800F400403A
:1027B000C8B91848008800F4804060B10A2C03D0E2
:1027C00000201449088020E01248008840F40040AE
:1027D0001049088019E00D2C06D10E48008840F4FD
:1027E00080400C49088010E00A480088C0F30D00C2
:1027F00009490C5407480088401C064908800846CF
:102800000088C72801DD0020088010BD00100140AD
:102810000000024074000020C801002010B58CB0F8
:1028200004461E230BAA03A9204600F095FE009043
:10283000009810B101200CB010BD9DF82C0004448C
:1028400000200B900EE054489DF82C2050F82210E8
:1028500003A800F0E9FD00B908E09DF82C00401C39
:10286000C0B20B909DF82C000728ECD300BF9DF858
:102870002C00072879D2DFE800F00405395B8D8C45
:102880008B0000BF45A001F065F845A001F062F89B
:1028900053A001F05FF862A001F05CF870A001F0B5
:1028A00059F87FA001F056F88DA001F053F89AA0D6
:1028B00001F050F89EA001F04DF8A3A001F04AF8F5
:1028C000A7A001F047F8ADA001F044F8B2A001F0D4
:1028D00041F8BFA001F03EF8CBA001F03BF8D7A033
:1028E00001F038F8E2A001F035F8B5E22BA001F0D4
:1028F00031F8EFA001F02EF800200B900EE0FC481C
:1029000000689DF82C2000EBC2004168F9A001F09E
:1029100021F89DF82C00401CC0B20B90F448007DBB
:102920009DF82C108842EADC1CA001F013F893E219
:102930001AA001F00FF8F1A001F00CF800200B90A4
:102940001CE0EB4909689DF82C2001EBC20101ABAA
:1029500002AA486803A900F025FEE54800689DF832
:102960002C1050F8312003A900E073E2F3A000F02E
:10297000F1FF9DF82C00401CC0B20B90DC48007D9C
:102980009DF82C108842DCDC04A000F0E3FF63E239
:1029900035E209E2DCE10000780000200D0A0000C9
:1029A0002D2D2D2D2D2D2D2D2D2D2D2D2D2D2D2D57
:1029B0002D2D2D2D2D2D2D2D55534D41525420565D
:1029C000332E312D2D2D2D2D2D2D2D2D2D2D2D2D2C
:1029D0002D2D2D2D2D2D2D2D2D2D2D200D0A0000D1
:1029E0002020202055534D415254CAC7D3C96D638E
:1029F00075646576BFAAB7A2B5C4D2BBB8F6C1E903
:102A0000C7C9B5C4B4AEBFDAB5F7CAD4BBA5BDBBA0
:102A1000D7E9BCFE2CCDA8B9FD200D0A00000000AE
:102A2000CBFC2CC4E3BFC9D2D4CDA8B9FDB4AEBF92
:102A3000DAD6FACAD6B5F7D3C3B3CCD0F2C0EFC357
:102A4000E6B5C4C8CEBACEBAAFCAFD2CB2A2D6B4CF
:102A5000D0D02ED2F2B4CB2CC4E3BFC90D0A0000F3
:102A6000D2D4CBE6D2E2B8FCB8C4BAAFCAFDB5C482
:102A7000CAE4C8EBB2CECAFD28D6A7B3D6CAFDD7E2
:102A8000D62831302F3136BDF8D6C629A1A2D7D6E7
:102A9000B7FBB4AEA1A2BAAFCAFDC8EB0D0A0000E5
:102AA000BFDAB5D8D6B7B5C8D7F7CEAAB2CECAFD69
:102AB000292CB5A5B8F6BAAFCAFDD7EEB6E0D6A7B1
:102AC000B3D63130B8F6CAE4C8EBB2CECAFD2CB2E8
:102AD000A2D6A7B3D6BAAFCAFDB7B5200D0A00007B
:102AE000BBD8D6B5CFD4CABE2ED0C2D4F6B2CECAC9
:102AF000FDCFD4CABEBDF8D6C6C9E8D6C3B9A6C4F0
:102B0000DC2CD0C2D4F6BDF8D6C6D7AABBBBB9A6BA
:102B1000C4DC2E0D0A00000055534D415254D3D051
:102B200037B8F6CFB5CDB3C3FCC1EE3A0D0A0000FD
:102B30003F3A202020202020BBF1C8A1B0EFD6FAD8
:102B4000D0C5CFA20D0A000068656C703A20202025
:102B5000BBF1C8A1B0EFD6FAD0C5CFA20D0A0000D4
:102B60006C6973743A202020BFC9D3C3B5C4BAAF0F
:102B7000CAFDC1D0B1ED0D0A0A00000069643A2017
:102B800020202020BFC9D3C3BAAFCAFDB5C4494471
:102B9000C1D0B1ED0D0A0A006865783A20202020E6
:102BA000B2CECAFD3136BDF8D6C6CFD4CABE2CBA15
:102BB000F3B8FABFD5B8F12BCAFDD7D6BCB4D6B49A
:102BC000D0D0BDF8D6C6D7AABBBB0D0A0A000000FC
:102BD0006465633A20202020B2CECAFD3130BDF8B2
:102BE000D6C6CFD4CABE2CBAF3B8FABFD5B8F12B2B
:102BF000CAFDD7D6BCB4D6B4D0D0BDF8D6C6D7AAF5
:102C0000BBBB0D0A0A00000072756E74696D653AEF
:102C1000312CBFAAC6F4BAAFCAFDD4CBD0D0BCC643
:102C2000CAB13B302CB9D8B1D5BAAFCAFDD4CBD0DC
:102C3000D0BCC6CAB13B0D0A0A000000C7EBB0B455
:102C4000D5D5B3CCD0F2B1E0D0B4B8F1CABDCAE4A6
:102C5000C8EBBAAFCAFDC3FBBCB0B2CECAFDB2A2CC
:102C6000D2D4BBD8B3B5BCFCBDE1CAF82E0D0A0066
:102C70002D2D2D2D2D2D2D2D2D2D2D2D2D2D2D2D84
:102C80002D2D2D2D2D2D2D2D2D2D6D6375646576FE
:102C90002D2D2D2D2D2D2D2D2D2D2D2D2D2D2D2D64
:102CA0002D2D2D2D2D2D2D2D2D200D0A0000000058
:102CB0002D2D2D2D2D2D2D2D2D2D2D2D2D2D2D2D44
:102CC0002D2D2D2D2D2D2D2D2DBAAFCAFDC7E5B5DE
:102CD000A52D2D2D2D2D2D2D2D2D2D2D2D2D2D2DAC
:102CE0002D2D2D2D2D2D2D2D2D2D2D2D200D0A0091
:102CF000D400002025730D0A000000002D2D2D2D7D
:102D00002D2D2D2D2D2D2D2D2D2D2D2D2D2D2D2DF3
:102D10002D2D2D2D2DBAAFCAFD204944202D2D2D4E
:102D20002D2D2D2D2D2D2D2D2D2D2D2D2D2D2D2DD3
:102D30002D2D2D2D2D2D2D2D200D0A0025732069D3
:102D4000642069733A0D0A3058253038580D0A004E
:102D5000AFF2B83000F0FEFD0BAA03A9204600F048
:102D6000FDFC9DF82C00C8B9694603A800F08FFB54
:102D70000B909DF82C0020B9F6A0009900F0EAFD18
:102D80000EE09DF82C00042801D0022053E5F4A0A9
:102D900000F0E0FD0120F749C87501E002204AE596
:102DA000EEA000F0D7FD57E0ECA000F0D3FD0BAA99
:102DB00003A9204600F0D2FC9DF82C00C8B9694652
:102DC00003A800F064FB0B909DF82C0020B9EAA04A
:102DD000009900F0BFFD0EE09DF82C00042801D002
:102DE000022028E5E7A000F0B5FD0020E149C87504
:102DF00001E002201FE5D9A000F0ACFD2CE0D7A037
:102E000000F0A8FD0BAA03A9204600F0A7FC9DF83E
:102E10002C00C8B9694603A800F039FB0B909DF857
:102E20002C0078B9D349009881F8EC00084690F856
:102E3000EC0018B1D8A000F08DFD07E0DDA000F097
:102E400089FD03E00220F6E40220F4E4C3A000F0D0
:102E500081FD01E00120EEE400BF0020EBE410B5AD
:102E60000121DB48FFF796F84FF6FF71D848FEF7CF
:102E700027FC0021D648FEF721FC0020BD49C1F8FF
:102E8000F00010BD10B50121D148FFF77AF80128F4
:102E900008D1B848D0F8F0004FF6FF710844B549A2
:102EA000C1F8F000CA48FEF70DFCB249D1F8F010A5
:102EB0000844B049C1F8F0000846D0F8F00010BD51
:102EC00010B50121C248FFF768F801280AD1A949C5
:102ED000086980470021BE48FEF7F0FB6421BC482A
:102EE000FEF7EEFB0121BA48FFF768F810BD7FB589
:102EF00004460D4601210420FEF7DFF9ADF800502D
:102F00000020ADF802000194ADF808006946B04811
:102F1000FEF78BFB01221146AD48FFF727F8012190
:102F2000AB48FEF70BFC1E208DF80C0003208DF83B
:102F30000D008DF80E0001208DF80F0003A8FDF79D
:102F4000E4FD7FBD10B5044604EBC40000EB0410A3
:102F50000122C2EB800081B24FF47A70FFF7C7FF05
:102F600001208449C87510BD30B595B0054613AB36
:102F700012AA09A9284600F015FB044614B1204600
:102F800015B030BD0020149026E07A4909689DF8FC
:102F9000502001EBC20113AB11AA486801A900F04F
:102FA00001FB04460CB12046EAE709A901A800F09C
:102FB0003BFA60B99DF844009DF84810884201DD55
:102FC0000220DDE79DF850006A4988750AE09DF807
:102FD0005000401CC0B214906648007D9DF850100F
:102FE0008842D2DC00BF6348007D9DF850108842C3
:102FF00001D10420C4E714A9284600F020FC0446AF
:103000000CB12046BCE79DF850005A494875002095
:10301000B6E72DE9F0419AB05648847D007DA04284
:1030200002DC1AB0BDE8F0815249096801EBC40125
:1030300006AB07AA486808A900F0B4FA08A965A079
:1030400000F088FC002644E04A48008B0121B14092
:103050000840D8B1222161A000F07CFC304600F08D
:10306000E1FB44492431471839465DA000F072FC69
:1030700022215AA000F06EFC304600F0D3FB3D49FF
:103080002431084410A941F8260018E0304600F029
:10309000C9FB38492431085810A941F826003548A1
:1030A000C07D30B910A850F826104EA000F052FC98
:1030B00005E010A850F826104BA000F04BFC9DF83E
:1030C0001C00401EB04202D049A000F043FC701C1E
:1030D000C6B29DF81C008642B6DB46A000F03AFC62
:1030E000FFF7BDFE2348407D0B280DD2DFE800F03E
:1030F000060D151E278491A0B1C4D9001D49096889
:1031000051F8340080470546E2E01A4A126852F846
:103110003410109888470546DAE0164B1B6853F8C0
:103120003420DDE9100190470546D1E0114F3F689A
:1031300057F8343010A807C898470546C8E0DFF8AC
:1031400034C0DCF800C05CF8347010A80FC8B84771
:103150000546BDE04845583A305825580D0A00004C
:103160003136BDF8D6C6B2CECAFDCFD4CABE210D07
:103170000A000000D40000204445433A256C750D38
:103180000A0000003130BDF8D6C6B2CECAFDCFD499
:10319000CABE210D0A00000052756E2054696D658B
:1031A0002043616C63756C6174696F6E204F4E0DC6
:1031B0000A00000052756E2054696D652043616CF1
:1031C00063756C6174696F6E204F46460D0A00008E
:1031D000000800400D0A2573280000002563000048
:1031E00025730000256C750030582558000000003C
:1031F0002C000000290000001498DFF8B4C10090F2
:10320000DCF800C05CF8347010A80FC8B847054659
:103210005EE0DDE91401DFF898C1CDE90001DCF8DA
:1032200000C05CF8347010A80FC8B84705464FE0DE
:10323000DDE914121698DFF878C1CDE9001202908A
:10324000DCF800C05CF8347010A80FC8B847054619
:103250003EE0DDE91423DDE91610DFF854C1CDE9C5
:103260000023CDE90210DCF800C05CF8347010A82F
:103270000FC8B84705462BE0DDE91523DDE9171037
:10328000CDE90123CDE903101498DFF824C10090A3
:10329000DCF800C05CF8347010A80FC8B8470546C9
:1032A00016E0DDE91623DDE91810CDE90223CDE9AA
:1032B0000410DDE91401DFF8F8C0CDE90001DCF805
:1032C00000C05CF8347010A80FC8B847054600BFAE
:1032D00000BFFFF7D7FD9DF8180001280CD1344836
:1032E000C07D20B9294633A000F034FB07E0294611
:1032F00032A000F02FFB02E02FA000F02BFB2C48A7
:1033000090F8EC0088B12A48D0F8F0000A21B0FB10
:10331000F1F201FB12072648D0F8F000B0FBF1F8FB
:103320003A46414628A000F015FB00BF79E670B58B
:103330002D48008800F40040002833D02A48057842
:1033400000202A4948551A48816828488847044679
:103350001CB91749C868804721E02448FFF75EFA86
:103360000546012D00D02C46CCB1012C06D0022CF4
:1033700008D0032C0AD0042C10D10BE01CA000F0C4
:10338000E9FA0BE01DA000F0E5FA07E01EA000F04E
:10339000E1FA03E01FA000F0DDFA00BF00BF00204B
:1033A0001149088070BD0146086870470160704788
:1033B000D40000203D256C753B0D0A003D3058259A
:1033C000583B0D0A0000000046756E6374696F6E0D
:1033D0002052756E2054696D653A25642E2531643E
:1033E0006D730D0A0000000074000020C801002069
:1033F000BAAFCAFDB4EDCEF3210D0A00B2CECAFDBC
:10340000B4EDCEF3210D0A00B2CECAFDCCABB6E0CE
:10341000210D0A00CEB4D5D2B5BDC6A5C5E4B5C44C
:10342000BAAFCAFD210D0A0002460AE010780B78F7
:10343000984201D001207047107800B902E0521C78
:10344000491CF3E700BF0020F5E706E002780A70A8
:10345000027802B902E0401C491CF7E700BF704740
:103460000146002005E00A7802B903E0421CD0B210
:10347000491CF8E700BF704710B50246012000E084
:1034800050430B1EA1F10104E1B2F9D110BD2DE9A9
:10349000F04307460E4600254FF00A083C46002040
:1034A00030601FE02078392802DC207830280ADAE2
:1034B0002078462802DC2078412804DA2078582831
:1034C00009D1012D07D12078412801DB4FF01008E8
:1034D000681CC5B205E0207800B904E00120BDE811
:1034E000F083641CDEE700BF3C46B8F1100F0FD13B
:1034F000032D01DA0220F2E72078302806D1607827
:10350000582803D1A41CA81EC5B204E00320E6E796
:103510000DB90420E3E71BE00DB1681EC5B22078A9
:10352000392806DC2078302803DB2078A0F1300928
:1035300002E02078A0F1370929464046FFF79CFFBA
:10354000316809FB00103060641C207800B900E08D
:10355000E2E700BF0020C2E710B50446002010706B
:103560000BE020780870641C491C1078401C107017
:103570001078984201DB012010BD2078202802D06D
:1035800020780028EDD10020087000BFF4E7014644
:10359000491C00E0491C0878202801D10029F9D1F4
:1035A000087870472DE9FF4F85B08046894600278F
:1035B000002004900390012002904FF0000B0025A2
:1035C00044461DE02078202816D005F07F0005280D
:1035D00012DA0DB945F0800505F07F00042803D10B
:1035E00020782A2800D00EE0207805F07F010DF821
:1035F0000100681CC5B202E0852D00D103E0641C07
:1036000020780028DED100BF8DB1002005F07F01B9
:103610000DF80100CBA16846FFF706FF18B900219D
:103620000898017002E001210898017000254FF010
:10363000000A444614E0641C0AF1010000F0FF0A8D
:103640002078202802D020782A2809D12046FFF7A8
:103650009EFF0646282E03D02A2E01D0CDF810A0BA
:103660002078282802D020780028E4D14446049805
:1036700010B10498401C04444FF0000A002654E0A6
:10368000207810B94FF0010A50E02078282803D1A3
:1036900016B9781CC7B213E02078292808D13EB9A2
:1036A00017B1781EC7B201E04FF0010A47B93DE0FB
:1036B0002078222804D10EB9012000E0002006461F
:1036C00047B9207820282FD0207889F8000009F108
:1036D000010929E020782C2804D101200290681CDF
:1036E000C5B214E02078202811D0207828280ED0E8
:1036F0004DB9BBF1050F06DA20780DF80B000BF180
:10370000010000F0FF0B0298401CC0B20290012F94
:103710000AD10298022807D10298401CC0B2029038
:103720000398401CC0B20390641CA9E700BF039833
:10373000012809D100200DF80B0082A16846FFF78F
:1037400073FE08B9002003900799039808700020C1
:1037500089F80000504609B0BDE8F08FF0B5034687
:103760001546002000220026002455E01F782C2F4B
:1037700001D104B901221F78292F01D01F780FB978
:1037800004B94AE0002E34D11F78302F02DB1F78B5
:10379000392F11DD1F78612F02DB1F78662F0BDDBB
:1037A0001F78412F02DB1F78462F05DD1F78582F29
:1037B00002D01F78782F0CD102B12EE01F78612F34
:1037C00003DB1F78203F0F7001E01F780F70491C4A
:1037D0001FE01F78222F04D102B11EE00126012430
:1037E00017E01F78202F14D01F782C2F11D0FF2620
:1037F00013E01F78222F00D1002402B10DE044B164
:103800001F785C2F02D15B1C471CF8B21F780F7029
:10381000491C471CF8B25B1CA8E700BF00270F70CB
:103820002E70F0BD02460020002105E0474B5B5C96
:103830000344D8B24B1CD9B29142F7DB70472DE953
:10384000F043B5B005460F460024002604E00021F1
:103850003E488155701CC6B20A2EF8DB06E06D1C8E
:10386000287818B9012035B0BDE8F08328782828D9
:10387000F5D16D1C61E034AA69462846FFF76EFF5A
:10388000064635449DF8D00020B1012827D0FF28F6
:103890004CD149E09DF8000000B333A96846FFF71A
:1038A000F6FD06460EB10220DDE72046FFF7BAFF1F
:1038B00026490A31339A0A50A1F12400008B0121D4
:1038C000A140884321491A39088304211F48015522
:1038D000601CC4B20A2C01DD0320C4E726E0684660
:1038E000FFF7BEFD401C00F0FF082046FFF79AFFDF
:1038F00016490A3100EB010949466846FFF7A5FD64
:1039000012481A38018B0120A040014388B20F49A8
:103910001A3908830D4800F80480601CC4B20A2CD0
:1039200001DD03209FE701E002209CE700BF28782B
:10393000292801D0287800B900E09CE700BF3C703E
:10394000002090E7766F696400000000EE00002020
:10395000704700000FB4044910B503AA029800F0A4
:10396000F5F910BC5DF814FB7000002070B504463A
:1039700085690068C10601D5302600E02026C00711
:1039800007D070BDD4E9012130469047206A401C21
:1039900020626D1EF6D570BD70B50446856900784D
:1039A000C00707D170BDD4E9012120209047206ACB
:1039B000401C20626D1EF6D570BD70B50C460546E4
:1039C000012A05D02878800600D5EA69002302E0A4
:1039D000012305E05B1C934202D2E05C0028F9D190
:1039E000A869E618C01AA861286A184428622846FF
:1039F000FFF7BCFF04E0D5E9012114F8010B904763
:103A0000B442F8D32846FFF7C7FF70BD2DE9F04157
:103A10000646002410687529314616A510D0AFF36C
:103A20000080002802DA404213A507E031688A07C7
:103A300001D512A502E0490704D511A5012401E032
:103A4000AFF3008000210A2206F1240709E0B0FB51
:103A5000F2FCB0FBF2F302FB1C0030307854184645
:103A6000491C0028F3D123462A463046BDE8F041E0
:103A700000F0FCB8000000002D0000002B0000004A
:103A80002000000070B504460D4621461068AFF3D3
:103A900000802188090502D50F4A7A4402E00E4AC7
:103AA0007A440E32002104F1240305E000F00F06F1
:103AB0000009965D5E54491C0028F7D12078002348
:103AC000000704D5702D02D009B10223113220461F
:103AD000BDE8704000F0CAB8040600002DE9F05FB0
:103AE000894604464FF0000ADFF874B1FB44C0F881
:103AF00020A02046E1688847002874D0252806D0F9
:103B0000D4E901219047206A401C2062F1E7002699
:103B10005F462046E16888472028054607DB312DAF
:103B200005D2781910F8200C08B10643F1E7B00768
:103B300001D526F00406C4F81CA00027C4F818A07C
:103B40002A2D09D0284600F061F938B304EB870824
:103B5000303DC8F8185019E059F8041B204604EB12
:103B600087029161E1688847012F054618D1E06915
:103B7000002820DA26F020061DE0D8F8180000EB17
:103B8000800005EB40003038C8F818002046E16896
:103B90008847054600F03AF90028EED1012F0AD0F7
:103BA0002E2D08D12046E16888477F1C0546022F4C
:103BB00046F02006C4DBA069002803DA404246F044
:103BC0000106A061F00701D026F010066C2D0BD085
:103BD000682D09D04C2D39D06A2D35D0742D35D0B3
:103BE0007A2D33D016E038E0E1682F46204688472A
:103BF000B842054609D16C2F26D04FF48060E168A9
:103C0000064320468847054604E06C2F1AD04FF43F
:103C1000807006430DB3A5F14100192802D8203564
:103C200046F400664A462946204626604E46FCF782
:103C300005FB80B101280BD0F61D26F0070000F12E
:103C4000080956E74020E4E78020D8E70020D6E7BF
:103C500006F104094DE7284652E7206ABDE8F09FC7
:103C6000DA05000070477047704770472DE9F0474C
:103C70000D4699469246044600F1240801688806DC
:103C800004D5E06921F01001216000E00120A84284
:103C900001DD471B00E00027A1697A1902EB09004A
:103CA000081AA0612078C00602D42046FFF75EFE05
:103CB000002608E0D4E901211AF806009047206A9E
:103CC000401C761C20624E45F4DB2078C0060AD5E5
:103CD0002046FFF74BFE06E0D4E901213020904753
:103CE000206A401C2062381EA7F10107F4DC07E0BF
:103CF000D4E9012118F805009047206A401C206291
:103D0000281EA5F10105F3DC2046FFF745FE2078CB
:103D1000000602D50220BDE8F0870120FBE710B5C0
:103D2000436913B1AFF3008001E0FFF746FE0120C5
:103D300010BD127800F124010A7000224A7001229D
:103D4000EDE711684FF0FF32E9E70000074B70B56F
:103D50000D467B4400F011F80446284600F020F898
:103D600010B14FF0FF3070BD204670BD7BE9FFFF02
:103D700001694A1C02610878704700B58FB0CDE92F
:103D800001310021059105497944CDE9031011461F
:103D90006846FFF7A3FE0FB000BD0000E5FFFFFF80
:103DA000007B00F080007047754600F02BF8AE46AF
:103DB00005006946534620F00700854618B020B537
:103DC000FCF78CFEBDE820404FF000064FF00007E6
:103DD0004FF000084FF0000B21F00701AC46ACE8B3
:103DE000C009ACE8C009ACE8C009ACE8C0098D4620
:103DF000704710B50446AFF300802046BDE8104080
:103E0000FCF73CBA004870479002002030380A287E
:103E100001D2012070470020704700004FEA115383
:103E2000A3F58063D3F11E03A8BFD3F1200C08DBF8
:103E30004FF0004242EAC12252EA505232FA03F0F5
:103E4000704709420BD4102BC4BF0020704703F504
:103E5000787CBCF1FF3F05D04FF0FF3070474FF04A
:103E60000000704770B500F0C3F800BF499224808D
:103E700000207047F0E7B0FA80F310FA03F10AD09F
:103E8000C3F11D0303F580634FEA41504FEA03522B
:103E900002EBD12170474FF000007047DFF848C1B6
:103EA00070B51CEA111E1EBF1CEA13159EEA0C0F0A
:103EB00095EA0C0F00F06F8081EA030423EA4C13AB
:103EC0004EEAD47E21EA4C1141F4801143F4801370
:103ED000AE44A1FB024CA0FB0365AEF17F7E361918
:103EE00055EB0C05A1FB034C4CF10003A0FB021C9D
:103EF00016EB0C06654153F10003094218BF46F06A
:103F0000010613F4007F0BD14FEA03314FEA05306D
:103F1000340341EA155140EA16506FF003020AE0FB
:103F20004FEAC3214FEAC520F40241EA555140EA65
:103F300056506FF0020202EB2E4201EB025585EA69
:103F4000CE710AD05FEA440C18BF24F0004450F14F
:103F5000000041F1000120EAD47040F2FE7C62458D
:103F600000D270BDA84214BF4FF080444FF04044CF
:103F7000002E08BF0024BEF1806FA8BFA1F1C04190
:103F8000BDE8704080F282804FF0000001F1C04136
:103F900001F0004170479EEA0C0F0CEA131518BFA0
:103FA00095EA0C0F06D04FF0000081EA030E0EF0E8
:103FB000004170BD00F01CF88900013E00F007B818
:103FC00000F009B84FEA430C5FEA5C5C08D081EA74
:103FD000030100F05BB84FEA410C5FEA5C5CF6D18C
:103FE0004FF00000014970470000FF070000F87F14
:103FF0000EF1020E2EF0030E5EF8046B364205D46D
:10400000012A43EB030515F5001F12D8012841EBE7
:10401000010C1CF5001F0CD80ED14FEAD17C15F510
:10402000001F0CEB4C0C0CF1020C08BF4CEBD37CCA
:1040300004E04FF0080C01E04FEAD37C0CEB4C0598
:1040400026FA05F606F00706B6F1040C06D20EEBCA
:10405000860CBDE870404CF0010C6047DFE80CF0C6
:10406000090B02024FF000414FF00000A1F50021C2
:1040700070BD19461046012851EB010418BFD4F554
:10408000001484BF002001F0004170BD0808A0F5B5
:1040900000114FEA310170474FF04070E1EE100A15
:1040A0007047303132333435363738394142434442
:1040B00045464030580030313233343536373839A0
:1040C00061626364656640307800040000080000A7
:1040D0000000000000020001000010003F0000008E
:1040E000646563006964000072756E74696D6500D3
:1040F00068656C70000000006C697374000000005B
:1041000068657800766F696420696E697428766FD7
:1041100069642900766F6964207068612875696E2A
:1041200074385F74204368616E6E656C2C2075690D
:104130006E7431365F742050686173652900000029
:10414000766F696420616D702875696E74385F746C
:10415000204368616E6E656C2C2075696E74313613
:104160005F7420416D706C6929000000766F69648E
:104170002077726974655F616464722875333220D8
:10418000616464722C7533322076616C2900000002
:10419000766F6964206672652875696E74385F741D
:1041A000204368616E6E656C2C2075696E743332C5
:1041B0005F7420467265712900000000753332205B
:1041C000726561645F616464722875333220616472
:1041D00064722900766F69642064656C61795F6D33
:1041E0007328753136206E6D73290000766F69640F
:1041F0002064656C61795F757328753332206E7544
:10420000732900002442000800000020C8010000BB
:10421000C4010008BC420008C801002028070000B3
:104220002002000811847A030A300D0102030406FB
:1042300007080910204080F303023C80969804117F
:1042400026C2EB0B409CCBFF03044123FF0F23FD51
:104250002F8BFE1F546958C113DC401B08F0041A51
:10426000F8041AE4041112411B08E0081AE80413C8
:10427000A7331B08BC101AAD081A6C0813790A1B67
:104280000890081A89081A40081A99081A14081A76
:10429000A9081A0408138D261B08D40813FD251B32
:1042A00008EC0822941420452F1B086904131330CE
:0C42B0001B082F481A088B01DC000000DE
:040000050800018965
:00000001FF
